:020000040800F2
:1000000000060020E1020008E3020008E302000805
:10001000E3020008E3020008E3020008E30200082C
:10002000E3020008E3020008E3020008F5300008DC
:10003000E3020008E3020008E3020008E30200080C
:10004000E3020008E3020008E3020008E3020008FC
:10005000E3020008E3020008A5480008D1480008B0
:10006000FD48000829490008554900089D1100086D
:10007000C5110008F11100081D12000849120008FE
:10008000711200089D120008E3020008E302000854
:10009000E3020008E3020008E302000881490008C7
:1000A000E3020008E3020008E3020008E30200089C
:1000B000E3020008E3020008E3020008E30200088C
:1000C000E3020008E3020008E3020008E30200087C
:1000D000E3020008594A0008E3020008E3020008AE
:1000E000E5490008E3020008E3020008E302000813
:1000F000E3020008E3020008E3020008C912000856
:10010000E3020008E30200086D4A0008E302000869
:10011000E3020008E3020008E3020008E30200082B
:10012000F51200081D130008491300087513000894
:10013000A1130008E3020008E3020008E30200083C
:10014000E3020008E3020008E3020008E3020008FB
:10015000C9130008F513000821140008E302000881
:10016000E3020008E3020008E3020008E3020008DB
:10017000E3020008B93C0008E3020008E3020008BB
:10018000E3020008E3020008E3020008E3020008BB
:10019000E3020008E3020008E3020008E3020008AB
:1001A000E3020008E3020008E3020008E30200089B
:1001B000E3020008E3020008E3020008E30200088B
:1001C000E3020008E3020008E3020008E30200087B
:1001D000E3020008A53C0008E3020008E30200086F
:1001E000E3020008E3020008E3020008E30200085B
:1001F000E3020008E3020008E3020008E30200084B
:10020000E3020008E3020008E3020008E30200083A
:10021000E3020008E3020008E3020008E30200082A
:10022000E3020008E3020008E3020008E30200081A
:10023000E3020008E3020008E3020008E30200080A
:10024000E3020008E3020008E3020008E3020008FA
:10025000E3020008E3020008E3020008E3020008EA
:10026000E3020008E3020008E3020008E3020008DA
:10027000E3020008E3020008E3020008E3020008CA
:10028000E3020008E3020008E3020008E3020008BA
:10029000E3020008E3020008E3020008E3020008AA
:1002A000E3020008E3020008E3020008E30200089A
:1002B000E3020008E3020008E3020008E30200088A
:1002C000E3020008E3020008E3020008E30200087A
:1002D000E3020008E3020008E3020008E30200086A
:1002E00002E000F000F8FEE772B6374880F30888B5
:1002F000364880F3098836483649086040F20000E5
:10030000CCF200004EF63471CEF200010860BFF36B
:100310004F8FBFF36F8F40F20000C0F2F0004EF637
:100320008851CEF200010860BFF34F8FBFF36F8F8B
:100330004FF00000E1EE100A4EF63C71CEF20001E3
:100340000860062080F31488BFF36F8F02F034FF3B
:1003500004F064F84FF055301F491B4A91423CBFEE
:1003600041F8040BFAE71D49184A91423CBF41F895
:10037000040BFAE71A491B4A1B4B9A423EBF51F83D
:10038000040B42F8040BF8E700201849184A914280
:100390003CBF41F8040BFAE702F04CFF04F0C0F850
:1003A000144C154DAC4203DA54F8041B8847F9E7A6
:1003B00000F042F8114C124DAC4203DA54F8041B21
:1003C0008847F9E702F034BF000600200022002031
:1003D0000000000808ED00E00000002000060020FA
:1003E000D84F00080022002064220020682200204C
:1003F00018490020E0020008E0020008E0020008BE
:10040000E00200082DE9F04F2DED108AC1F80CD064
:10041000D0F80CD0BDEC108ABDE8F08F002383F338
:1004200011882846A047002002F038F9FEE702F0C4
:10043000C3F800DFFEE7000038B500F0BDFC00F0B7
:1004400085FE02F017FE054602F04AFE0446A8B9F2
:100450000E4B9D4215D001339D4214D041F2883598
:10046000002002F011FE0CB100F078F800F00EFE52
:10047000284600F01FF900F071F8F9E70025012483
:10048000EEE70546ECE70546F9E700BF010007B0D7
:1004900008B500F061FCA0F120035842584108BDA6
:1004A00007B541F21203022101A8ADF8043000F0B3
:1004B0006DFC03B000BD000038B5302383F3118814
:1004C000174803680BB102F0B1F90023154A4FF445
:1004D0007A71134802F0A4F9002383F31188124CB7
:1004E000236813B12368013B2360636813B1636819
:1004F000013B63600D4D2B7833B963687BB90220F3
:1005000000F02CFD322363602B78032B07D1636846
:100510002BB9022000F022FD4FF47A73636038BDDE
:1005200078230020B90400086C23002074230020E5
:10053000084B187003280CD8DFE800F00805020803
:10054000022000F0FDBC022000F0EABC024B0022B9
:100550005A607047742300206C230020F8B5504B7C
:10056000504A1C461968013100F0998004339342C7
:10057000F8D162684C4B9A4240F291804B4B9B6899
:1005800003F1006303F500339A4280F08880002075
:1005900000F038FC0220FFF7CBFF454BD3F8E820F2
:1005A0000022C3F8E820D3F81011C3F81021D3F8C3
:1005B0001011D3F8EC10C3F8EC20D3F81411C3F8E1
:1005C0001421D3F81411D3F8F010C3F8F020D3F8A5
:1005D0001811C3F81821D3F81811D3F8801041F07E
:1005E0000061C3F88010D3F8801021F00061C3F8D7
:1005F0008010D3F88010D3F8801041F00071C3F858
:100600008010D3F8801021F00071C3F88010D3F867
:10061000803072B64FF0E023C3F8084DD4E900549F
:10062000BFF34F8FBFF36F8F03F55063C3F8842080
:10063000BFF34F8F5A6922F480325A61BFF34F8F54
:10064000D3F8800043F6E076C0F34E32520102EA5E
:10065000060CC0F3C9014CEA81770139C3F8747202
:10066000F9D2203A12F1200FF1D1BFF34F8FBFF32F
:100670006F8FBFF34F8FBFF36F8F5A6922F4003231
:100680005A610022C3F85022BFF34F8FBFF36F8F20
:10069000302383F31188AD4685F308882047F8BDE1
:1006A0000000020820000208FFFF010800220020CD
:1006B000004402582DE9F04F93B0DFF890B22022A9
:1006C000FF2100900AA8DBF8085000F089FC9A4A44
:1006D0001378A3B90121994811700360302383F383
:1006E000118803680BB102F0A1F80023944A4FF47B
:1006F0007A71924802F094F8002383F31188009BEA
:1007000013B1904B009A1A608F4A1378032B03D0D1
:10071000002313708B4A53604FF00008009EC246BE
:1007200044464746012000F00BFC26B1854B1B6870
:10073000002B00F01E82002000F00EFB0390039BB4
:10074000002BF2DB012000F0EBFB039B213B1F2B76
:10075000E8D801A252F823F0D9070008F5070008ED
:100760007B08000825070008250700082507000862
:1007700011090008E70A0008FF090008630A0008D9
:100780008B0A0008B10A000825070008C30A000800
:1007900025070008310B00086D0800082507000830
:1007A000790B00081D0900086D08000825070008DE
:1007B000630A000825070008250700082507000828
:1007C0002507000825070008250700082507000859
:1007D000250700087B0800080220FFF759FE0028C3
:1007E00000F09C8000F048FC0AF00B0301240B2B66
:1007F00070D1F3E04FF47A7000F0AEFAB0F1000976
:10080000C0F28C800220FFF743FE002800F08680B3
:1008100009F1FF37052F00F2D781DFE807F0030A5F
:100820000D10132B0523042105A8059300F0AEFA43
:1008300017E004214548F9E704214548F6E704217B
:100840004448F3E74FF01C09484609F1040900F059
:10085000DBFA0421059005A800F098FAB9F12C0FF5
:10086000F2D10123BB4000274AEA030A00F004FC4E
:1008700084B3B9E704213848D8E7002C4ED00AF0F9
:100880000B030B2B49D10220FFF702FE0446002880
:1008900043D001204FF0000800F0B4FA0220FFF727
:1008A00047FE1FFA88F000F0BDFA0646B0B9264BA5
:1008B0000122354602201A7000F032FBDBF80830C6
:1008C000AB421DD80025204BA0461D701D4B5D601E
:1008D00000F0D2FBFFF7E4FD234673E103991FFA12
:1008E00088F008F10108A1F140035942594100F094
:1008F000A9FA0028D5D1A046064641F2121314E009
:10090000284600F081FA013040F060810435D5E7D7
:1009100024B10AF00B030B2B20D00124009BB8F16B
:10092000000F08BF1E4641F21233022105A8ADF8A0
:10093000143000F02BFACFE7682300207823002042
:10094000B90400086C23002074230020002200203A
:1009500004220020082200200C2200200220FFF7A1
:10096000E7FD322000F0F8F920F4FF44814624F03E
:100970007C0424B2002CD0D14319DBF80820934228
:10098000CBD8B0F5807FC8D8914BA14528DCC820D2
:10099000FFF77EFD04460028BFD01F2D11D8C5F1FA
:1009A00020020AAB25F0030089494A45184428BFB4
:1009B0004A46019200F0F4FA019AFF21844800F0BF
:1009C0000FFBC9F387028249284600F011FB00287B
:1009D00093D001904D4400F04FFB019C002679E735
:1009E0004FF47A70019300F0B7F90390039A002A4C
:1009F00093DB039A0134019B03F8012BC5E7022026
:100A0000FFF746FD002889D000F03AFA002885D08B
:100A10004FF000094B4614E0B9F11F0F1BD80A9A9A
:100A2000013218D029F0030248326A4452F8200CEF
:100A300005900422184605A900F09AFB09F1040963
:100A40000346DBF808204A45E6D80593042105A8AB
:100A500000F09CF90AE74846019300F0D5F9019BA4
:100A6000E6E70023642104A8049300F087F9002836
:100A70007FF454AF0220FFF70BFD00283FF44EAF88
:100A8000049800F0F3F90590E0E70023642104A83E
:100A9000049300F073F900287FF440AF0220FFF7C1
:100AA000F7FC00283FF43AAF049800F0E1F9EAE7D8
:100AB0000220FFF7EDFC00283FF430AF00F0F0F922
:100AC000E1E70220FFF7E4FC00283FF427AF05A987
:100AD000142000F0EBF981460421049004A800F0F2
:100AE00055F94946B3E7322000F036F920F4FF43C8
:100AF00023F07C031BB2002B7FF410AF00EB07093F
:100B0000DBF8083099453FF609AF0220FFF7C0FC3B
:100B100000283FF403AF4F453FF4A8AE38460437F2
:100B200000F072F90421059005A800F02FF9F2E712
:100B30004FF47A70FFF7ACFC00283FF4EFAE00F002
:100B40009FF900283FF4D9AE0A9B01330CD008224C
:100B50000AA9002000F04CFA00283FF4CEAE202273
:100B6000FF210AA800F03CFAFFF79AFC194801F0AF
:100B70009BFD13B0BDE8F08F002C3FF4CFAE0AF020
:100B80000B030B2B7FF4CAAE0023642105A8059349
:100B900000F0F4F8814600287FF4C0AE0220FFF791
:100BA00077FC00283FF4BAAE0190FFF779FC41F2E0
:100BB00088304E4601F078FD059800F0A5FA00F067
:100BC0005BFA019B1C46ADE50027A7E6A04694E62C
:100BD00068220020A08601002DE9F0474FF47A75C5
:100BE00081460E4600245543114FDFF84C8097F99B
:100BF00000305A1C01D0A3420FD158F824003246CD
:100C000049460368D3F820A02B46D047864204D13A
:100C1000084B01201C70BDE8F087631C0124022BE7
:100C2000E5D14FF4FA7001F03FFD0020F3E700BF7B
:100C300010220020C02300201422002000232DE9D0
:100C4000F0471A46074688460120194600F092FCF4
:100C50000446802002F0A2F9064668B364B33C4D16
:100C600038464FF0800A6B6943F0C0636B61D5F87A
:100C7000143143F0C063C5F8143102F015F807EBE6
:100C8000080200FB07F34FF03D0C00FB02FE4FF49F
:100C9000D060734512D3204600F0ACFC304602F021
:100CA000B1F92B4B5A6942F0C0625A61D3F8142152
:100CB00042F0C062C3F81421BDE8F08729694A01F7
:100CC0002CD4D5F81011490128D4226803F1006111
:100CD00091602168CE602168C1F804A02168086095
:100CE000D4F80090D9F8001041F00101C9F80010C3
:100CF000D4F80090D9F8001021F01E01C9F80010B6
:100D0000D4F80090D9F80010CA07FBD494F80C90DE
:100D1000803362680CFA09F11160BAE70D4B9A6AE8
:100D200042F400729A629A6A42F400429A6261B690
:100D30000025012002F092F8A84503D8002002F017
:100D40008DF8A8E77819013501F0C6FFF4E700BF78
:100D50000020005200ED00E0002307B5024601210B
:100D60000DF107008DF80730FFF736FF18B19DF839
:100D7000070003B000BD4FF0FF30FAE70A46042138
:100D800008B5FFF729FF013808BD0000074B0A46E8
:100D900030B419780546064B53F8210029460368FC
:100DA000DC69044BA44630BC604700BFC023002070
:100DB00014220020A086010070B5104C0026104DB2
:100DC00001F076FF208028682388834208D901F04B
:100DD0006BFF2B6806440133B6F5003F2B60F2D35E
:100DE00000252088013801F05FFF23880544013B7E
:100DF000B5F5802F2380F4D370BD00BFB823002049
:100E0000BC23002002F02AB800F1006000F5003099
:100E10000068704700F10060920000F5003001F0BA
:100E2000A3BF0000054B1A68054B1B889B1A834221
:100E300002D9104401F038BF00207047BC230020C5
:100E4000B823002038B50446074D29B1286820444E
:100E5000BDE8384001F040BF2868204401F02AFF77
:100E60000028F3D038BD00BFBC230020002070470D
:100E700000F1FF5000F58F10D0F800087047000017
:100E8000064991F8243033B100230822086A81F81A
:100E90002430FFF7BFBF0120704700BF9023002020
:100EA000014B1868704700BF0010005C194B1A4ACC
:100EB00070B51D68431E0424C5F30B060B44013CAA
:100EC00008D19942084610D30524144A013C15D193
:100ED000401A70BD1088B0420ED152680846013ADF
:100EE0009842F1D212F9014F1CB92C2200F8012BC3
:100EF000EAE700F8014BF3E70832E0E71688B6EBC3
:100F0000154F04D198423CBF967800F8016B04322B
:100F1000DCE700BF0010005C1C220020444B0008EE
:100F2000022804D1054B4FF480129A6170470128C2
:100F3000FCD1024B4FF48022F7E700BF00100258AB
:100F4000022803D1044B10229A6170470128FCD17A
:100F5000014B0422F8E700BF00100258022805D117
:100F6000064A536983F01003536170470128FCD18E
:100F7000024A536983F00403F6E700BF00100258E9
:100F800070B504464FF47A7604B970BD412C2546FD
:100F900028BF412506FB05F0641B01F085FBF3E744
:100FA000002310B5934200D110BDCC5CC454013372
:100FB000F8E70000013810B510F9013F3BB191F995
:100FC00000409C4203D11AB10131013AF4E71AB151
:100FD00091F90020981A10BD1046FCE7FFF7FEBFFC
:100FE00002440346934200D1704703F8011BF9E71E
:100FF0002DE9F8431F4C16460746884694F82420EE
:101000007AB3236A03EB820383422AD0FFF738FFC7
:1010100038BB0020BDE8F88394F824302BB9202297
:10102000FF2114482762FFF7DBFF94F824004146B4
:10103000C0F1080504EB8000B54228BF35464FEAF1
:1010400085094A46FFF7ACFF94F824302B44DBB205
:10105000082B84F8243008D008EB8508751B4F4412
:10106000EEB2002ED8D10120D4E7FFF709FF002807
:10107000F2D1CEE790230020024B1A78024B1A706F
:10108000704700BFC02300201022002070B5194C0B
:10109000194800F03BFE2146174800F063FE246823
:1010A0004FF47A70154DD4F89020134ED2F80438CE
:1010B00043F00203C2F80438FFF762FF20461049EC
:1010C00000F05CFFD4F890200324D2F8043823F019
:1010D0000203C2F804384FF4E1330A4A1360013CBA
:1010E00000D170BD55F8040BB042F8D0054900F0AE
:1010F0006BFDF4E7504D0008D02D00201422002095
:10110000584D0008C4230020F8B50C4B07460C4D81
:101110001E780C4B55F826209A420DD00A4C00211F
:1011200018222046FFF75CFF214655F8260027606D
:10113000BDE8F84000F048BDF8BD00BFC023002066
:1011400014220020D02D0020C423002008B571B641
:10115000054B1988054B1888FFF770FD02210E20FA
:10116000FFF76CFD61B608BDB8230020BC2300204A
:101170000A4430B5914200D130BD11F8013B5840CE
:10118000082340F30005044C013B2C4013F0FF03FF
:1011900084EA5000F5D1EDE72083B8ED08B5074BA0
:1011A000074A196801F03D01996053680BB19068D6
:1011B0009847BDE8084001F0D5BF00BF00000240DD
:1011C000DC23002008B5084B196801F474629A60AA
:1011D000064AD36823B18909106901F03D01984797
:1011E000BDE8084001F0BEBF00000240DC23002043
:1011F00008B5084B196801F474129A60064A5369DD
:1012000023B1090C906901F03D019847BDE8084001
:1012100001F0A8BF00000240DC23002008B5084B05
:10122000196801F074629A60064AD36923B1890D86
:10123000106A01F03D019847BDE8084001F092BFF7
:1012400000000240DC23002008B5074B074A59681C
:1012500001F03D01D960536A0BB1906A9847BDE82F
:10126000084001F07FBF00BF00000240DC230020E7
:1012700008B5084B596801F47462DA60064AD36A0B
:1012800023B18909106B01F03D019847BDE8084082
:1012900001F068BF00000240DC23002008B5084BC5
:1012A000596801F47412DA60064A536B23B1090CD1
:1012B000906B01F03D019847BDE8084001F052BF36
:1012C00000000240DC23002008B5084B596801F0FB
:1012D0007462DA60064AD36B23B1890D106C01F099
:1012E0003D019847BDE8084001F03CBF00000240C6
:1012F000DC23002008B5074B074A196801F03D01BF
:101300009960536C0BB1906C9847BDE8084001F0B0
:1013100029BF00BF00040240DC23002008B5084BB1
:10132000196801F474629A60064AD36C23B1890982
:10133000106D01F03D019847BDE8084001F012BF73
:1013400000040240DC23002008B5084B196801F4B2
:1013500074129A60064A536D23B1090C906D01F026
:101360003D019847BDE8084001F0FCBE0004024082
:10137000DC23002008B5084B196801F074629A60FC
:10138000064AD36D23B1890D106E01F03D019847D7
:10139000BDE8084001F0E6BE00040240DC23002066
:1013A00008B5074B074A596801F03D01D960536EF3
:1013B0000BB1906E9847BDE8084001F0D3BE00BF66
:1013C00000040240DC23002008B5084B596801F4F2
:1013D0007462DA60064AD36E23B18909106F01F096
:1013E0003D019847BDE8084001F0BCBE0004024042
:1013F000DC23002008B5084B596801F47412DA6048
:10140000064A536F23B1090C906F01F03D019847D4
:10141000BDE8084001F0A6BE00040240DC23002025
:1014200008B5094B596801F07462DA60074AD36F56
:101430002BB1890DD2F8800001F03D019847BDE83D
:10144000084001F08FBE00BF00040240DC230020F2
:1014500000230C4A10B519460B4C42F8043B54F8D3
:101460002300016042F813100433402BF7D1074AE0
:101470004FF0FF339360D360C2F80834C2F80C34E5
:1014800010BD00BFDC230020D04B0008000002404C
:101490001128F8B512D004D8102811D10F2400203B
:1014A00003E0122808D10F240720DFF8C4E001264A
:1014B000DEF80050A04205D900263EE00724EEE702
:1014C0000446F2E706FA00F73D424BD1264C4FEABC
:1014D000001C3D4304EB00160EEBC000CEF800509C
:1014E000C0E90123FBB253BB204BD3F8D80040F036
:1014F0000200C3F8D800D3F8000140F00200C3F89E
:101500000001D3F8003154F80C00036823F01F03E6
:101510000360056815F00105FBD104EB0C033D24C5
:1015200093F80CC05F6804FA0CF43C602124056059
:10153000446112B1987B00F075F93046F8BD0B4B51
:1015400017F47F4FD3F8D80040F00100C3F8D8005B
:10155000D3F8000140F00100C3F80001D3F80031D6
:10156000D1D0C1E70130A5E7D04B000800440258B4
:10157000DC23002010B5302484F31188FFF788FFA6
:10158000002383F3118810BD10B50446807B00F062
:101590005FF91649637B01229A400B6823EA020334
:1015A000DAB20B6072B9124AD2F8D81021F00101F8
:1015B000C2F8D810D2F8001121F00101C2F80011D0
:1015C000D2F8002113F47F4F0ED1094BD3F8D82065
:1015D00022F00202C3F8D820D3F8002122F0020240
:1015E000C3F80021D3F8003110BD00BFDC23002078
:1015F0000044025808B5302383F31188FFF7C4FF75
:10160000002383F3118808BD026843680A4302601F
:1016100003B1184770470000024A136843F0C00343
:10162000136070470010014013B50E4C204600F0C7
:10163000BFFA04F1140000234FF400720A49009429
:1016400000F07CF9094B4FF40072094904F13800AD
:10165000009400F0F5F9074A074BC4E9172302B0DC
:1016600010BD00BF60280020602600201916000869
:10167000602400200010014000E1F505274B70B503
:10168000002914BF0C461C46037C012B11D1244BAE
:1016900098420ED1234BD3F8F02042F01002C3F849
:1016A000F020D3F8182142F01002C3F81821D3F823
:1016B00018312268036EC16D03EB52038466B3FBDD
:1016C000F2F3626823F0070603F0070512F4004FF7
:1016D00045EA460518BF2B46CB60A36843F040039C
:1016E0004B60E36843F001038B6042F4967343F070
:1016F00001030B604FF0FF330B6251050AD512F066
:10170000102209D0B2F1805F14BFFF233F2380F87D
:10171000643070BDFF23FAE77F23F8E7D04C000860
:1017200060280020004402582DE9F047C66D0446A9
:101730003768F5692A07356214D06901AB074FF0A5
:10174000300301F4907148BF41F04001680748BF81
:1017500041F0800183F31188201DFFF755FF00231E
:1017600083F31188EA050AD5302383F311884FF4F7
:101770008061201DFFF748FF002383F311884FF09D
:1017800030094FF0000A0BE089F31188716A204696
:1017900094F86430194000F025FA8AF31188F5694D
:1017A00015F02008F0D13B0615D54FF0300A280679
:1017B00011D58AF3118804F1380000F075F900287A
:1017C00029DA0821201DFFF71FFF27F0800333606F
:1017D000002383F31188790614D56A0612D53023C5
:1017E00083F31188D4E913239A4208D1236C33B1CF
:1017F00027F040071021201DFFF706FF3760002368
:1018000083F31188EB060BD5A26E136943B15069BF
:10181000BDE8F0471847B06288F31188F569C6E75C
:10182000BDE8F08700F1604300F01F02400903F5B6
:1018300061430901800083F80013012300F1604037
:10184000934000F56140C0F88031036070470000AC
:1018500000F01F0301229A40430900F160409B0001
:1018600000F5614003F1604303F56143C3F8802054
:10187000C3F88021002380F800337047F8B515467F
:10188000826804460B46AA4200D28568A16926698F
:10189000761AB5420BD22A461846FFF781FBA26999
:1018A0002A44A3682846A2615B1BA360F8BD0CD93B
:1018B000AF1B18463246FFF773FB3A46E1683044E7
:1018C000FFF76EFBE368DA19EBE72A461846FFF7E5
:1018D00067FBE268E5E70000836893422DE9F04189
:1018E00004460F46154600D28568D4E90460361ACE
:1018F000B5420CD22A463946FFF752FB62692A44A8
:10190000A368284662615B1BA360BDE8F0810ED925
:10191000A5EB060832463946FFF742FB4246B919A5
:10192000E068FFF73DFBE36803EB0802E8E72A46BF
:101930003946FFF735FBE268E2E7000010B5002406
:10194000C160C361029B84600362C0E90511114458
:10195000C0E90000016110BD08B5D0E9053293422D
:1019600001D1826882B98268013282605A1C426168
:1019700019700021D0E904329A4224BFC368436140
:1019800000F0AEFE002008BD4FF0FF30FBE7000086
:1019900070B5302304460E4683F31188A568A5B1BF
:1019A000A368A269013BA360531CA3611578226957
:1019B000934224BFE368A361E3690BB120469847D3
:1019C000002383F31188284607E03146204600F0C3
:1019D00077FE0028E2DA85F3118870BD2DE9F74F14
:1019E00007460D4616460193D0F81C804FF030098B
:1019F00089F311884FF0000A144664B12246294643
:101A00003846FFF73BFF834660B90199384600F03E
:101A100057FE0028F2D0002383F31188301B03B057
:101A2000BDE8F08FB8F1000F01D03846C0478AF307
:101A30001188A4EB0B045D4489F31188DDE70000F5
:101A4000C160C361009B82600362C0E9051111445B
:101A5000C0E9000001617047F8B504460E4617461C
:101A6000302383F31188A568A5B1A368013BA36067
:101A700063695A1C62611E70D4E904329A4224BF21
:101A8000E3686361E3690BB120469847002080F367
:101A9000118807E03946204600F012FE0028E2DAFD
:101AA00085F31188F8BD0000D0E9052310B59A42EE
:101AB00001D182687AB982680021013282605A1CA1
:101AC00082611C7803699A4224BFC368836100F075
:101AD00007FE204610BD4FF0FF30FBE72DE9F74F22
:101AE00007460D4616460193D0F81C804FF030098A
:101AF00089F311884FF0000A144664B12246294642
:101B00003846FFF7E9FE834660B90199384600F090
:101B1000D7FD0028F2D0002383F31188301B03B0D7
:101B2000BDE8F08FB8F1000F01D03846C0478AF306
:101B30001188A4EB0B045D4489F31188DDE70000F4
:101B4000026843680A43026003B118477047000007
:101B50001430FFF743BF00004FF0FF331430FFF79E
:101B60003DBF00003830FFF7B9BF00004FF0FF3332
:101B70003830FFF7B3BF00001430FFF709BF000093
:101B80004FF0FF311430FFF703BF00003830FFF78C
:101B900063BF00004FF0FF323830FFF75DBF000039
:101BA000012914BF6FF0130000207047FFF73CBD00
:101BB000044B036000234360C0E902330123037434
:101BC000704700BFE84C000810B53023044683F38B
:101BD0001188FFF753FD02230020237480F311883E
:101BE00010BD000038B5C36904460D461BB9042179
:101BF0000844FFF7A5FF294604F11400FFF7ACFEE7
:101C0000002806DA201D4FF40061BDE83840FFF7D8
:101C100097BF38BD026843680A43026003B11847A2
:101C20007047000013B5406B00F58054D4F8A43819
:101C30001A681178042914D1017C022911D119796B
:101C4000012312898B4013420BD101A94C3002F0C1
:101C50005FF9D4F8A4480246019B2179206800F07E
:101C6000DDF902B010BD0000143002F0E7B800004A
:101C70004FF0FF33143002F0E1B800004C3002F0B6
:101C8000B3B900004FF0FF334C3002F0ADB90000A3
:101C9000143002F0B5B800004FF0FF31143002F0FC
:101CA000AFB800004C3002F07FB900004FF0FF32B7
:101CB0004C3002F079B900000020704710B500F5F3
:101CC0008054D4F8A4381A681178042917D1017CFB
:101CD000022914D15979012352898B4013420ED124
:101CE000143002F047F8024648B1D4F8A4484FF443
:101CF000407361792068BDE8104000F07DB910BDE7
:101D0000406BFFF7DBBF0000704700007FB5124B50
:101D100001250426044603600023057400F18402B3
:101D200043602946C0E902330C4B02901430019302
:101D30004FF44073009601F0F9FF094B04F694420A
:101D4000294604F14C000294CDE900634FF440733E
:101D500002F0BAF804B070BD104D0008011D000873
:101D6000251C00080A68302383F311880B790B3394
:101D700042F823004B79133342F823008B7913B1D7
:101D80000B3342F8230000F58053C3F8A418022354
:101D90000374002080F311887047000038B5037F7A
:101DA000044613B190F85430ABB90125201D02212F
:101DB000FFF730FF04F114006FF00101257700F008
:101DC0009BFC04F14C0084F854506FF00101BDE815
:101DD000384000F091BC38BD10B5012104460430F4
:101DE000FFF718FF0023237784F8543010BD00005C
:101DF00038B504460025143001F0B0FF04F14C0062
:101E0000257702F079F8201D84F854500121FFF75E
:101E100001FF2046BDE83840FFF750BF90F8803002
:101E200003F06003202B06D190F881200023212AA3
:101E300003D81F2A06D800207047222AFBD1C0E908
:101E40001D3303E0034A426707228267C36701200C
:101E5000704700BF3422002037B500F58055D5F813
:101E6000A4381A68117804291AD1017C022917D1E3
:101E70001979012312898B40134211D100F14C04CE
:101E8000204602F0F7F858B101A9204602F040F8C8
:101E9000D5F8A4480246019B2179206800F0BEF8DD
:101EA00003B030BD01F10B03F7B550F823400546F0
:101EB0000E46F4B1302383F3118805EB8607201D0D
:101EC00008214C34FFF7A6FEFB685B691B6813B161
:101ED000204602F02BF801A9204602F019F802462C
:101EE00048B1019B3146284600F098F8002383F35F
:101EF000118803B0F0BDFB685A691268002AF5D05A
:101F00001B8A013B1340F1D105F18002EAE7000092
:101F1000133138B550F82140ECB1302383F31188E8
:101F200004F58053D3F8A4281368527903EB820395
:101F3000DB689B695D6845B104216018FFF76AFEA4
:101F4000294604F1140001F01FFF2046FFF7B6FEFA
:101F5000002383F3118838BD7047000001F0F8B901
:101F600001234022002110B5044600F8303BFFF762
:101F700037F80023C4E9013310BD000010B5302349
:101F8000044683F311882422416000210C30FFF7BE
:101F900027F8204601F0FEF902230020237080F389
:101FA000118810BD70B500EB8103054650690E46DF
:101FB0001446DA6018B110220021FFF711F8A06969
:101FC00018B110220021FFF70BF831462846BDE872
:101FD000704001F0E5BA000083682022002103F080
:101FE000011310B5044683601030FEF7F9FF204658
:101FF000BDE8104001F05ABB30B4012445898C4043
:102000002C43448100EB8104E468A469236000232D
:10201000A260636030BC01F077BB000030B40124E3
:1020200005898C402C43048100EB8104E4686469D9
:1020300023600023A260636030BC01F0E9BB0000B4
:1020400070B5022300250446242203702946C0F8F7
:1020500088500C3040F8045CFEF7C2FF204684F83C
:10206000705001F031FA63681B6823B1294620469D
:10207000BDE87040184770BD0378052B10B50446C5
:102080000AD080F88C300523037043681B680BB1BD
:10209000042198470023A36010BD000001780529A2
:1020A00006D190F88C20436802701B6803B1184772
:1020B0007047000070B590F87030044613B10023EB
:1020C00080F8703004F18002204601F013FB636851
:1020D0009B68B3B994F8803013F0600535D00021C7
:1020E000204601F0FFFD0021204601F0EFFD63686E
:1020F0001B6813B1062120469847062384F87030E8
:1021000070BD204698470028E4D0B4F88630A56F0B
:102110009D4284BF1D46A36794F98030002B4FF089
:10212000300380F20381002D00F0F280092284F850
:10213000702083F3118800212046D4E91D23FFF786
:102140006DFF002383F31188DAE794F8812003F010
:102150007F0343EA022340F20232934200F0C5803B
:1021600021D8B3F5807F48D00DD8012B3FD0022B6A
:1021700000F09380002BB2D104F188026267022242
:10218000A267E367C1E7B3F5817F00F09B80B3F5F9
:10219000407FA4D194F88230012BA0D1B4F88830CC
:1021A00043F0020332E0B3F5006F4DD017D8B3F51A
:1021B000A06F31D0A3F5C063012B90D8636820468F
:1021C00094F882205E6894F88310B4F88430B047A5
:1021D000002884D0436863670368A3671AE0B3F5F7
:1021E000106F36D040F6024293427FF478AF5C4BDA
:1021F00063670223A3670023C3E794F88230012BAF
:102200007FF46DAFB4F8883023F00203A4F888306F
:10221000C4E91D55E56778E7B4F88030B3F5A06FE1
:102220000ED194F88230204684F88A3001F0AAF961
:1022300063681B6813B1012120469847032323706C
:102240000023C4E91D339CE704F18B03636701237A
:10225000C3E72378042B10D1302383F31188204661
:10226000FFF7BAFE85F311880321636884F88B5069
:1022700021701B680BB12046984794F88230002BE0
:10228000DED084F88B300423237063681B68002B36
:10229000D6D0022120469847D2E794F884302046D1
:1022A0001D0603F00F010AD501F016FA012804D02B
:1022B00002287FF414AF2B4B9AE72B4B98E701F0E1
:1022C000FDF9F3E794F88230002B7FF408AF94F81F
:1022D000843013F00F01B3D01A06204602D501F066
:1022E00019FDADE701F00AFDAAE794F88230002B52
:1022F0007FF4F5AE94F8843013F00F01A0D01B06E4
:10230000204602D501F0EEFC9AE701F0DFFC97E7EA
:10231000142284F8702083F311882B462A4629461C
:102320002046FFF769FE85F31188E9E65DB11522C5
:1023300084F8702083F3118800212046D4E91D23FE
:10234000FFF75AFEFDE60B2284F8702083F3118814
:102350002B462A4629462046FFF760FEE3E700BFEA
:10236000404D00083C4D0008384D000838B590F845
:1023700070300446002B3ED0063BDAB20F2A34D828
:102380000F2B32D8DFE803F03731310822323131F8
:102390003131313131313737856FB0F886309D4278
:1023A00014D2C3681B8AB5FBF3F203FB12556DB957
:1023B000302383F311882B462A462946FFF72EFE49
:1023C00085F311880A2384F870300EE0142384F812
:1023D0007030302383F31188002320461A461946B3
:1023E000FFF70AFE002383F3118838BDC36F03B1E2
:1023F00098470023E7E70021204601F073FC002105
:10240000204601F063FC63681B6813B10621204677
:1024100098470623D7E7000010B590F870300446BF
:10242000142B29D017D8062B05D001D81BB110BD0D
:10243000093B022BFBD80021204601F053FC002170
:10244000204601F043FC63681B6813B10621204657
:102450009847062319E0152BE9D10B2380F870303B
:10246000302383F3118800231A461946FFF7D6FD5F
:10247000002383F31188DAE7C3689B695B68002B4C
:10248000D5D1C36F03B19847002384F87030CEE7ED
:1024900000238268037503691B6899689142FBD227
:1024A0005A68036042601060586070470023826879
:1024B000037503691B6899689142FBD85A680360E9
:1024C000426010605860704708B5302383F311886C
:1024D0000A7D0023052A06D8DFE802F00C05050373
:1024E000130F8A6913604FF0FF3308468B61FFF7C3
:1024F000CFFF002383F3118808BD8A6993680133F5
:102500009360D1E9003213605A60ECE7FFF7C0BF77
:10251000054BD96808751868026853601A60012273
:10252000D8600275FDF76EBFE02A00200C4B30B575
:10253000DC684B1C87B005460FD02346094A684625
:1025400000F06EF92846FFF7E3FF009B13B16846E1
:1025500000F06CF9A06907B030BDFFF7D9FFF9E7CB
:10256000E02A0020C924000838B50C4D04468161DA
:10257000EB6881689A68914203D8BDE83840FFF75C
:1025800087BF1846FFF792FF01230146EC60204603
:102590002375BDE83840FDF735BF00BFE02A0020B5
:1025A000044B1A68DB6890689B68984294BF0020CF
:1025B00001207047E02A0020084B10B51C68D8683D
:1025C000226853601A600122DC602275FFF76EFFFB
:1025D00001462046BDE81040FDF714BFE02A002068
:1025E00038B50123084C00252370656001F07EFD9D
:1025F00001F0A4FD0549064801F07CFE022323708A
:1026000085F3118838BD00BF382B0020444D0008E9
:10261000E02A002000F040B9034A516853685B1A71
:102620009842FBD8704700BF001000E08B60022387
:10263000086108468B8270478368A3F1840243F8DF
:10264000142C026943F8442C426943F8402C094A8F
:1026500043F8242CC268A3F1200043F8182C02226E
:1026600003F80C2C002203F80B2C034A43F8102C1F
:10267000704700BF1D040008E02A002008B5FFF7DE
:10268000DBFFBDE80840FFF741BF0000024BDB68FD
:1026900098610F20FFF73CBFE02A0020302383F32E
:1026A0001188FFF7F3BF000008B50146302383F31C
:1026B00011880820FFF73AFF002383F3118808BD33
:1026C00049B1064B4268DB6818605A60136043608A
:1026D0000420FFF72BBF4FF0FF307047E02A0020A7
:1026E0000368984206D01A680260506018469961E3
:1026F000FFF70CBF7047000038B504460D46206850
:10270000844200D138BD036823605C608561FFF7B7
:10271000FDFEF4E7036810B59C68A2420CD85C6823
:102720000B608A604C60216059609968891A9960D1
:102730004FF0FF33836010BD121B1B68ECE70000F5
:102740000A2938BF0A2170B504460D460A266019C9
:1027500001F0C6FC01F0AEFC041BA54203D8751CB9
:1027600004462E46F3E70A2E04D90120BDE8704046
:1027700001F000BE70BD0000F8B5144B0D460A2AEA
:102780004FF00A06D96103F11001826038BF0A22B6
:10279000416019691446016048601861A81801F089
:1027A0008FFC01F087FC431B0746A34206D3741C31
:1027B000281926463D4601F093FCF2E70A2E04D97B
:1027C0000120BDE8F84001F0D5BDF8BDE02A0020A9
:1027D00070B50D46064601F06DFC0F490B4653F8E7
:1027E000102F9A4206D12A4601463046BDE8704075
:1027F000FFF7C2BFCB69C41A93682C1928BF2C46B7
:10280000A34202D92946FFF79BFF224631460348DF
:10281000BDE87040FFF77EBFE02A0020F02A0020CC
:10282000C0E9032300234361FFF7D2BF10B5194C61
:10283000236998420DD08168D0E9003213605A6054
:102840009A680A449A60002303604FF0FF33A36143
:1028500010BD0268234643F8102F53600022026027
:1028600022699A4203D1BDE8104001F033BC93685D
:1028700081680B44936001F01DFC2269E369926852
:10288000C41AA242E4D91344BDE81040191AFFF754
:1028900057BF00BFE02A00202DE9F843294E2A4FF8
:1028A000356901F007FCF469AA68011B8A423BD82C
:1028B00014444FF00008D5E90032F46113605A6007
:1028C000C5F800803369BB4201D101F003FC88F3F5
:1028D0001188D5E9033128469847302383F31188BE
:1028E0006B69002BDCD001F0E5FB6A69A0EB040802
:1028F000814642450CD2022001F03CFD00223369A2
:10290000BB4208D149462846BDE8F843FFF734BF2B
:102910002244121AF3E712EB080829460A4838BF86
:102920004246FFF7F7FEBAE73169B94207D01444CF
:10293000F061211AA960BDE8F843FFF701BFBDE8C7
:10294000F88300BFE02A0020F02A00200020704712
:10295000FEE70000704700004FF0FF3070470000B6
:1029600002290CD0032904D00129074818BF0020F0
:102970007047032A05D8054800EBC2007047044899
:1029800070470020704700BF004E00083C22002026
:10299000B44D000870B59AB005460846144601A922
:1029A00000F0C2F801A8FEF719FB0323C6B20130FC
:1029B000002200B24000C5E900042070023404F88F
:1029C000013C104601ABD1B28E4201D81AB070BDA5
:1029D00013F8011B013204F8021B04F8010CF2E7A2
:1029E00008B5302383F311880348FFF735FA002335
:1029F00083F3118808BD00BFD02D002090F88030EF
:102A000003F01F02012A07D190F881200B2A03D17D
:102A10000023C0E91D3318E003F06003202B0BD125
:102A200090F8843043B990F885302BB990F8812024
:102A3000212A03D81F2A04D8FFF7F0B9222AE8D0A8
:102A4000FAE7034A426707228267C367012070479B
:102A50005C22002010B50446052916D8DFE801F0F5
:102A600016150316161D302383F311880E4A012113
:102A7000FFF798FA20460D4A0221FFF793FA0C4817
:102A8000FFF7B6F9002383F3118810BD302383F3D9
:102A900011880748FFF782F9F4E7302383F31188A0
:102AA0000348FFF799F9EDE78C4D0008684D0008E1
:102AB000D02D002038B5084A08490948FFF76AFFB9
:102AC000084A09490948FFF765FF094A09490A48C0
:102AD000BDE83840FFF75EBF702B0020824B000836
:102AE000442200203A2C00208C4B00084C2200206D
:102AF000042D0020974B00085422002070B5044696
:102B000008460E46FEF76AFAC5B2237820460BB98E
:102B1000184670BD2A4631460134FEF74BFA0028AC
:102B2000F3D10120F5E70000F8B505460C46FEF7A5
:102B300055FA274907462846FFF7E0FF2549460092
:102B40002846FFF7DBFF06EB00163E44F6B2632E85
:102B500019D929462046BDE8F84001F0EBBF252EE3
:102B600032D107221A492846FEF724FA80B91A4BB7
:102B7000073509341A6844F8092C5A681B7A44F856
:102B8000052C04F8013C2E78002EE8D12670F8BD03
:102B9000082210492846FEF70DFAA8B9A21C0F4BCF
:102BA0000F48104E197802320909415C02F8041CE2
:102BB00013F8011B01F00F01B342415C02F8031C42
:102BC000F0D118340835DEE7013504F8016BDAE797
:102BD000A04B0008974B0008A84B000800E8F11F25
:102BE000B24B00080CE8F11FBFF34F8F044B1A697A
:102BF0005107FCD1D3F810215207F8D1704700BF1C
:102C00000020005208B50D4B1B78ABB9FFF7ECFF65
:102C10000B4BDA68D10704D50A4A5A6002F18832B0
:102C20005A60D3F80C21D20706D5064AC3F804210E
:102C300002F18832C3F8042108BD00BF78460020A5
:102C4000002000522301674508B5114B1B78F3B9EA
:102C5000104B1A69510703D5DA6842F04002DA6076
:102C6000D3F81021520705D5D3F80C2142F04002C9
:102C7000C3F80C21FFF7B8FF064BDA6842F00102F7
:102C8000DA60D3F80C2142F00102C3F80C2108BD30
:102C900078460020002000520F289ABF00F580607F
:102CA00040040020704700004FF4003070470000DF
:102CB000102070470F2808B50BD8FFF7EDFF00F57F
:102CC00000330268013204D104308342F9D101207B
:102CD00008BD0020FCE700000F2810B504463FD8CF
:102CE000FFF782FF1F48FFF78DFF4FF0FF33072CE0
:102CF0004361C0F814311DD80361FFF775FF23024B
:102D000043F02403C360C36843F08003C3600369D6
:102D10005A07FCD42046FFF767FFFFF7BDFF4FF4CB
:102D2000003100F0BFF92046FFF78EFFBDE81040EC
:102D3000FFF7C0BFC0F81031FFF756FFA4F108033A
:102D40001B0243F02403C0F80C31D0F80C3143F0DF
:102D50008003C0F80C31D0F810315B07FBD4D9E701
:102D6000002010BD002000522DE9F84340EA020384
:102D700004460D46DB0602D00020BDE8F88322F0B1
:102D80001F00FFF73FFF05EB0008454503D1012079
:102D9000FFF75AFFF1E720222946204601F0BAFE4C
:102DA00010B920342035F0E7234604F120021968D9
:102DB0000131E1D104339342F9D104F17843B3F501
:102DC000801F35BF1E4F1F4F1F48204834BFDFF8FC
:102DD0008490DFF88490FFF707FF4FF0FF33611B0B
:102DE00005F11C0203603B6843F002033B602B1FAC
:102DF000D9F8006016F00506FAD153F804CF9342D3
:102E000041F803C0F4D1BFF34F8FFFF7EDFE4FF051
:102E1000FF3303603B6823F002033B60BFF34F8F37
:102E20000B4BC3F85C42BFF34F8FBFF36F8F202271
:102E30002946204601F06EFE0028B2D03046A7E7B2
:102E40000C2000520C210052142000521421005278
:102E500000ED00E0102000521021005210B5084C87
:102E6000237828B11BB9FFF7CDFE0123237010BDD5
:102E7000002BFCD02070BDE81040FFF7E5BE00BF7E
:102E8000784600202DE9F74F0E46054600287AD0F7
:102E900011F00D0824D181B34FF0080A4FF0010959
:102EA0003A4F06F0040306EA090BBBF1000F30D0DD
:102EB0007969CC072DD409F101090C37B9F1060F56
:102EC000F3D1B8F1000F42D052462946304801F004
:102ED00057F90446002851D1204603B0BDE8F08FD1
:102EE0000F0707D5431E03424DD182461F3525F0FB
:102EF0001F05D3E74FF0200AF8E7014608223046C5
:102F000001F03EF904460028C6D02A46002120469A
:102F100036E0B3B1796911F0040FCCD0310702D596
:102F200079690A07C7D5019318201A4B52462946DA
:102F300000FB093001F024F9019B04460028BAD0B7
:102F4000E3E7B007EAD5796911F0020FE5E7124E21
:102F500052462946304601F013F904460028D4D1E0
:102F600008F101081836B8F1050FF1D1524629468B
:102F700001F006F904460028C7D1A5E72A4600213A
:102F8000FEF72EF8A8E70024A6E700BF1C4E0008B5
:102F90007C46002094460020AC4600200121FFF72B
:102FA00071BF0000F8B5144D01241827134E40F2EC
:102FB000FF3200210120FEF713F807FB0460013403
:102FC0002A6955F80C1F01F0C7F8062CF5D13725F2
:102FD0004FF4C0542046FFF7E1FF014628B12246D6
:102FE0000748BDE8F84001F0B7B8C4EBC404013DA0
:102FF0004FEAD404EED1F8BD1C4E000894460020E0
:103000007C46002008B101F031B970470244064BFC
:10301000D2B210B5904200D110BD441C53F820002C
:1030200041F8040BE0B2F5E7504000580E4B30B5C4
:103030001C6F240405D41C6F1C671C6F44F40044EF
:103040001C670A4C02442368D2B243F480732360A5
:10305000074B904200D130BD441C51F8045B43F84B
:103060002050E0B2F5E700BF004402580048025883
:103070005040005807B5012201A90020FFF7C6FF04
:10308000019803B000BD000013B50446FFF7F2FF3E
:10309000A04205D0012201A900200194FFF7C6FF3C
:1030A00002B010BD0144BFF34F8F064B884204D3DA
:1030B000BFF34F8FBFF36F8F7047C3F85C022030B0
:1030C000F4E700BF00ED00E0034B1A681AB9034AA9
:1030D000D2F8D0241A6070472447002000400258DC
:1030E00008B5FFF7F1FF024BD878C0F3800008BDA8
:1030F00024470020EFF30983054968334A6B22F027
:1031000001024A6383F30988002383F3118870471F
:1031100000EF00E0302080F3118862B60D4B0E4ABC
:10312000D96821F4E0610904090C0A430B49DA600B
:10313000D3F8FC2042F08072C3F8FC20084AC2F8A1
:10314000B01F116841F0010111602022DA7783F885
:103150002200704700ED00E00003FA0555CEACC533
:10316000001000E0302310B583F311880E4B5B682C
:1031700013F4006314D0F1EE103AEFF309844FF02A
:103180008073683CE361094BDB6B236684F3098839
:10319000FFF706FA10B1064BA36110BD054BFBE724
:1031A00083F31188F9E700BF00ED00E000EF00E0D5
:1031B0002F0400083204000870B5BFF34F8FBFF32F
:1031C0006F8F1A4B0021C3F85012BFF34F8FBFF31C
:1031D0006F8F5A6942F400325A61BFF34F8FBFF3C9
:1031E0006F8FC3F88410BFF34F8FD3F8800043F67E
:1031F000E074C0F34E32520102EA0406C0F3C90182
:1032000046EA81750139C3F86052F9D2203A12F1C9
:10321000200FF1D1BFF34F8F5A6942F480325A61C7
:10322000BFF34F8FBFF36F8F70BD00BF00ED00E0A5
:10323000FEE700001D4A1E4B1E4970B58B422DD380
:103240001D4A002193422ED31C4AC2F88410BFF3BA
:103250004F8FD2F8800043F6E074C0F34E335B0129
:1032600003EA0406C0F3C90146EA81750139C2F8D0
:103270006C52F9D2203B13F1200FF1D1BFF34F8FE5
:10328000BFF36F8FBFF34F8FBFF36F8F0023C2F871
:103290005032BFF34F8FBFF36F8F70BD52F8040BE6
:1032A00043F8040BCAE743F8041BCBE73C50000883
:1032B00018490020184900201849002000ED00E0BE
:1032C000074BD3F8D82022EA0002C3F8D820D3F85D
:1032D000002122EA0002C3F80021D3F80031704730
:1032E0000044025870B5D0E9244300224FF0FF3566
:1032F0009E6804EB42135101D3F80009002805DA57
:10330000D3F8000940F08040C3F80009D3F8000B5F
:10331000002805DAD3F8000B40F08040C3F8000B1A
:10332000013263189642C3F80859C3F8085BE0D22B
:103330004FF00113C4F81C3870BD0000890141F042
:103340002001016103699B06FCD41220FFF764B9D8
:1033500008B50A48FEF704FE084A094B0948C2F8B6
:103360009030094BC2F89430FEF7FAFD074B054A3E
:10337000C2F89030064BC2F8943008BDDC470020FC
:103380000000084040470020704E00080000044044
:10339000644E000870B503780546012B5CD1434BA1
:1033A000D0F89040984258D1414B0E216520D3F877
:1033B000D82042F00062C3F8D820D3F8002142F0B0
:1033C0000062C3F80021D3F80021D3F8802042F036
:1033D0000062C3F88020D3F8802022F00062C3F896
:1033E0008020D3F88030FEF71DFA324BE360324B79
:1033F000C4F800380023D5F89060C4F8003EC0231C
:1034000023604FF40413A3633369002BFCDA012318
:103410000C203361FFF700F93369DB07FCD412207D
:10342000FFF7FAF83369002BFCDA00262846A6607D
:10343000FFF758FF6B68C4F81068DB68C4F81468BD
:10344000C4F81C6883BB1D4BA3614FF0FF3363615D
:10345000A36843F00103A36070BD194B9842C9D122
:10346000134B4FF080600E21D3F8D82042F0007249
:10347000C3F8D820D3F8002142F00072C3F800212D
:10348000D3F80021D3F8802042F00072C3F88020E6
:10349000D3F8802022F00072C3F88020D3F8803067
:1034A000FFF70EFF4D209EE7064BCDE7DC470020DF
:1034B000004402584014004003002002003C30C089
:1034C00040470020083C30C0F8B5D0F89040054691
:1034D00000214FF000662046FFF730FFD5F894102A
:1034E00000234FF001128F684FF0FF30C4F83438DA
:1034F000C4F81C2804EB431201339F42C2F8006950
:10350000C2F8006BC2F80809C2F8080BF2D20B68C7
:10351000D5F89020C5F898306362102313611669BE
:1035200016F01006FBD11220FFF776F8D4F8003819
:1035300023F4FE63C4F80038A36943F4402343F046
:103540001003A3610923C4F81038C4F814380B4BD6
:10355000EB604FF0C043C4F8103B094BC4F8003B8C
:10356000C4F81069C4F80039D5F8983003F1100296
:1035700043F48013C5F89820A362F8BD7C4E000880
:1035800040800010D0F8902090F88A10D2F80038CF
:1035900023F4FE6343EA0113C2F8003870470000C9
:1035A0002DE9F84300EB8103D0F890500C4680469B
:1035B000DA6805EB411104F11000166806F0030605
:1035C000731E022B4FF0000398BFB604C1F8103BE6
:1035D0004FF001038CBF334E06F1805603FA00F31F
:1035E000906998BF06F5004600283AD0508A04F149
:1035F0005801304349016850D5F81C180B43C5F8F1
:103600001C3805EB441900230127C9F81039A740DD
:1036100053698BB3138A2846928B9B08012A88BF73
:103620005343D8F89820991842EA034204F13F0323
:10363000C8F89810214605EB83035A60FFF77EFE19
:1036400008EB8400C3681B8A43EA8453483433433D
:1036500064012B51D5F81C383B43C5F81C38BDE834
:10366000F883D1F8000B20F40040C1F8000BD5F826
:103670001C1821EA0303C2E704F13F030A4A21466A
:10368000284605EB83035A60FFF758FED9F8003946
:1036900023F40043C9F80039D5F81C3823EA07039E
:1036A000DBE700BF0080001000040002D0F8943077
:1036B0001B68C0F89830FFF715BE00005831D0F8ED
:1036C000903049015B5813F4004004D013F4001FFC
:1036D00014BF0120022070474831D0F890304901D2
:1036E0005B5813F4004004D013F4001F14BF0120F2
:1036F0000220704700EB8100C368196A0B681360F1
:103700004B6853607047000000EB810330B5DD6803
:10371000AB691A68DA6019B9402A84BF40221A607E
:103720006B8A5C1E1444D0F89020B4FBF3F463431E
:1037300002EB4110033323F0030343EAC44343F095
:10374000C043C0F8103B2B6803F00303012B0CD1DE
:10375000D2F8083813F4807FD0F8003B14BF43F050
:10376000805343F00053C0F8003B02EB4112D2F803
:10377000003B43F00443C2F8003B30BD2DE9F0416B
:10378000D0F8906005460C4606EB4113D3F8087B51
:103790003A07C3F8087B08D5D6F814381B0704D5B8
:1037A00000EB8103DB685B689847FA071FD5D6F802
:1037B0001438DB071BD505EB8403D968CCB98B69BA
:1037C000488A5A68B2FBF0F600FB16228AB91868DC
:1037D000DA6890420DD2121AC3E90024302383F331
:1037E000118821462846FFF78FFF84F31188BDE832
:1037F000F08101226B89A24023EA02036B81CB682E
:10380000002BF4D021462846BDE8F04118470000BF
:1038100000EB8103D0F8902030B5DC6865692B6837
:10382000EB604BBB02EB41134FF40020C3F81009CF
:10383000236803F00303012B0ED1D2F8083802EB02
:10384000411013F4807FD0F8003914BF43F0805347
:1038500043F00053C0F8003902EB4110D0F80039B2
:1038600043F00443C0F800390123D2F834088B40F8
:103870000343C2F8343830BD19B9402B84BF40230C
:103880002B60258A681E1844B0FBF5F043EAC0435C
:1038900002EB411043F00053C0F81039C8E70000B4
:1038A0002DE9F843D0F8906005460C4606EB41132D
:1038B000D3F80879C3F80879FB071CD5D6F8103877
:1038C000DA0718D500EB8103D3F80CC0DCF814300C
:1038D000D3F800E0DA68964530D2A2EB0E024FF042
:1038E00000081A60C3F80480302383F31188FFF7BF
:1038F0008FFF88F311883B061ED5D6F83438012691
:10390000A640334218D005EB8403D5F89070651CAF
:10391000D3F80CE007EB4414EDB2DEF8142007EB0B
:103920000535D2F800805168414513D3D7F83438B3
:1039300023EA0603C7F83438BDE8F8830122038977
:103940008A4023EA02030381DCF80830002BD2D03E
:103950009847D0E7A8EB0103BEF81000834228BFC8
:103960000346D4F8180980B2B3EB800FE4D890680E
:10397000A0F1040959F804CFC5F800C0A0EB090C68
:103980009C44BCF1040FF5D8184419449060516070
:10399000C9E700002DE9F047D0F8905004466E6961
:1039A000AB691E4016F480576E6103D0BDE8F04746
:1039B000FEF746BB002E12DAD5F8003E990705D077
:1039C000D5F8003E23F00303C5F8003ED5F80438CF
:1039D000204623F00103C5F80438FEF75FFB3205EB
:1039E00005D52046FFF77EFC2046FEF745FBB304D5
:1039F0000CD5D5F8083813F0060FEB6823F4705394
:103A00000CBF43F4105343F4A053EB6030071BD5B5
:103A10006368DB681BB9AB6923F00803AB612378EB
:103A2000052B0CD1D5F8003E990705D0D5F8003EFE
:103A300023F00303C5F8003E2046FEF72FFB636822
:103A4000DB680BB120469847F20200F1A280B30276
:103A50000DD5D4F890904FF000084FF0010AD4F83B
:103A600094305FFA88F19B688B4280F0CC80F0063E
:103A700019D5D4F89000026AC2F30A1C02F00F03B1
:103A800002F4F012B2F5802F00F0E580B2F5402F7D
:103A900009D104EB8303002200F58050DB681B6A28
:103AA000944540F0CD803003D5F8185835D5E9035A
:103AB00003D500212046FFF761FEAA0303D50121AB
:103AC0002046FFF75BFE6B0303D502212046FFF77C
:103AD00055FE2F0303D503212046FFF74FFEE802D2
:103AE00003D504212046FFF749FEA90203D505218D
:103AF0002046FFF743FE6A0203D506212046FFF762
:103B00003DFE2B0203D507212046FFF737FEEF01CC
:103B100003D508212046FFF731FE700340F1C08035
:103B2000E90703D500212046FFF7BAFEAA0703D50F
:103B300001212046FFF7B4FE6B0703D50221204682
:103B4000FFF7AEFE2F0703D503212046FFF7A8FE9F
:103B5000EE0603D504212046FFF7A2FEA80603D5F2
:103B600005212046FFF79CFE690603D50621204665
:103B7000FFF796FE2A0603D507212046FFF790FEA1
:103B8000EB0540F18D8020460821BDE8F047FFF7A6
:103B900087BED4F890A04FF00009D4F894305FFAB3
:103BA00089F89B684345FFF452AF0AEB4813D3F8FA
:103BB000002902F44022B2F5802F21D1D3F8002948
:103BC000002A1DDAD3F8002942F09042C3F80029F8
:103BD000D3F80029002AFBDB4146D4F89000FFF718
:103BE000ADFB0122238902FA08F223EA02032381B2
:103BF00004EB8803DB689B6813B141462046984775
:103C000009F10109C9E709EB4112D2F8003B03F4BD
:103C10004023B3F5802F10D1D2F8003B002B0CDAF3
:103C200063890AFA01F223EA0203638104EB810348
:103C3000DB68DB680BB12046984708F101080EE706
:103C4000910700D10768072A02F101029CBF03F81F
:103C5000017B3F0A24E704EB830300F58050DA6818
:103C6000D2F818E0DEF80820DEE9001EA1EB0E0E07
:103C700000218C4508D1DB689B699A6862449A6090
:103C80005A6862445A600EE711F0030F00D10768CA
:103C90008E4501F1010184BF02F8017B3F0AE8E78C
:103CA000BDE8F08708B50348FFF774FEBDE808409B
:103CB000FFF758BADC47002008B50348FFF76AFE53
:103CC000BDE80840FFF74EBA40470020D0F89030DA
:103CD00003EB4111D1F8003B43F40013C1F8003B62
:103CE00070470000D0F8903003EB4111D1F8003953
:103CF00043F40013C1F8003970470000D0F8903049
:103D000003EB4111D1F8003B23F40013C1F8003B51
:103D100070470000D0F8903003EB4111D1F8003922
:103D200023F40013C1F800397047000030B50433A4
:103D3000039C0172002104FB0325C160C0E9065306
:103D4000049B0363059BC0E90000C0E90422C0E9AD
:103D50000842C0E90A11436330BD00000022416AF5
:103D6000C260C0E90411C0E90A226FF00101FEF748
:103D7000C3BC0000D0E90432934201D1C2680AB941
:103D8000181D704700207047036919600021C26840
:103D90000132C260C269134482699342036124BF45
:103DA000436A0361FEF79CBC38B504460D46E368E0
:103DB0003BB162690020131D1268A3621344E362E1
:103DC00007E0237A33B929462046FEF779FC00281C
:103DD000EDDA38BD6FF00100FBE70000C368C2698F
:103DE000013BC3604369134482699342436124BF2A
:103DF000436A436100238362036B03B11847704732
:103E000070B53023054683F31188866A3EB9FFF703
:103E1000CBFF044618B186F31188204670BDAB6A0B
:103E2000EA6A13F8014B9342AB6202D32846FFF7CC
:103E3000D5FF002383F31188EFE700002DE9F84F49
:103E400004460F4691469B464FF0300888F3118890
:103E50000026B246A56A4DB959462046FFF7A4FF91
:103E600020B185F311883046BDE8F88FD4E90A15F2
:103E7000A9EB06036D1A9D4228BF1D46402D1AD995
:103E80003B4601F1400251F8040B914243F8040B08
:103E9000F9D1A36A403740364033E26AA3629A42BE
:103EA00002D82046FFF79AFF8AF311884E45DAD2EE
:103EB00088F31188CEE738462A46FDF771F8A36AE1
:103EC0002F442E442B44E8E710B5029C04330172C2
:103ED00003FB0421C460C0E906130023C0E90A33D0
:103EE000039B0363049BC0E90000C0E90422C0E90E
:103EF0000842436310BD0000026A6FF00101C26016
:103F0000426AC0E904220022C0E90A22FEF7F4BB9B
:103F10000346D0E90420824201D1DB681BB950F886
:103F2000043B0B60704700231846FAE7C368002182
:103F3000C2690133C3604369134482699342436198
:103F400024BF436A4361FEF7CBBB000038B504468B
:103F50000D46E3683BB1236900201A1DA262E269A5
:103F60001344E36207E0237A33B929462046FEF77B
:103F7000A7FB0028EDDA38BD6FF00100FBE7000079
:103F800003691960C268013AC260C2691344826958
:103F90009342036124BF436A036100238362036B7E
:103FA00003B118477047000070B5302304460E4631
:103FB00083F31188856A35B91146FFF7C7FF10B141
:103FC00085F3118870BDA36A1E70A36AE26A01338B
:103FD0009342A36204D3E16920460439FFF7D0FF7E
:103FE000002080F31188EDE72DE9F84F05460C46D7
:103FF00091469B464FF0300888F311880027BA4657
:10400000AE6A4EB959462846FFF7A0FF20B186F3A5
:1040100011883846BDE8F88FD5E90A06A9EB0703F1
:10402000361A9E4228BF1E46402E1AD904F140037C
:1040300054F8042B9C4240F8042BF9D1AB6A40376A
:104040004033EA6AAB629A4204D8E96928460439E7
:10405000FFF796FF8AF311884F45DAD288F311886B
:10406000CEE721463246FCF79BFFAB6A3444374427
:104070003344E6E7D0E9042103468A4216D1C068FA
:10408000A8B1986A98B10438801A10D01060012045
:10409000D9680139D960D9690A4499698A421A6193
:1040A00024BF5A6A1A6100229A6270470020704742
:1040B00000F062BA014B586A704700BF000C004024
:1040C000034B002258631A610222DA60704700BF76
:1040D000000C0040014B0022DA607047000C0040E9
:1040E000014B5863704700BF000C0040024B034A6D
:1040F0001A60034A5A607047784800201849002027
:1041000000000220074B494210B55C68201A0840A5
:104110001968821A8A4203D3A24201D85A6010BD9C
:104120000020FCE77848002008B5302383F311888D
:10413000FFF7E8FF002383F3118808BD044801213D
:10414000044B03600023C0E901330C3000F01AB9BE
:104150008048002029410008CB1D083A23F00703BE
:10416000591A521A012110B4D2080024C0E90043A0
:1041700084600C301C605A6010BC00F003B9000071
:104180002DE9F84F384BCD1D0F46002814BF80464F
:104190009846082A4FEAD50538BF082208F10C00D6
:1041A00008F10404914600F009F909F10701C9F189
:1041B000000C2246246884B908F10C0000F008F9CC
:1041C000D8F80030002B3AD008224946E80098473A
:1041D0000446A0B340E9028731E06618D4F804E051
:1041E00006EA0C060EF10103A6F1080004EBC30376
:1041F0008342DED99E1BB5EBE60F4FEAE60BD8D81B
:1042000084421FD204F10803AB45A0EB03034FEA3D
:10421000E30363600BD9691CABEB050B00EBC10238
:104220000BF1FF335360236840F8313022600446BD
:10423000476008F10C0044F8088B00F0C9F82046EC
:10424000BDE8F88FAE4521680AD0013504EBC50002
:1042500044F8351000F108015B1A0146DB10436099
:1042600020461160E3E700BF80480020F8B550F811
:10427000043C044650F8085CA0F1080607332F1DE3
:104280000C35DB0840F8043C284600F097F83B4624
:104290009F421A6801D0B34228D20AB1964225D271
:1042A00044F8082C54F8042C1E60013254F8081C01
:1042B00006EBC200814206D1486810440A6844F8FF
:1042C000040C44F8082C59684A1C03EBC2029642BD
:1042D00007D154F8042C01320A445A6054F8082CCF
:1042E0001A602846BDE8F84000F072B81346CFE7E0
:1042F000FEE7000070B5002504461A4B86B08562C3
:104300000E4601635860FEF705FF04F11003A56037
:10431000E562C4E904334FF0FF33C4E90044C4E963
:104320000635FFF7C7FE2B46024604F1340120464E
:10433000C4E9082380230C4A2565FEF777F9012399
:104340000A4AE06000920375684672680192B2689A
:10435000CDE90223064BCDE90435FEF78FF906B00F
:1043600070BD00BF382B0020C34B0008C84B0008AD
:10437000F1420008024AD36A0343D362704700BF88
:10438000E02A0020C0E90000816070478368013B9B
:10439000002B10B583600CDA074BDC684368A06122
:1043A000206063601C6044600520FEF7B1F8A069DE
:1043B00010BD0020FCE700BFE02A002008B5302334
:1043C00083F31188FFF7E2FF002383F3118808BD10
:1043D00008B53022034682F3118882680132002A30
:1043E000826006DC0068002102681A605360FEF7F4
:1043F000BBF8002383F3118808BD00004B684360BD
:104400008B688360CB68C3600B6943614B6903624F
:104410008B6943620B6803607047000008B53B4B33
:1044200040F2FF713A48D3F888200A43C3F8882045
:10443000D3F888206FF30A02C3F88820D3F88820C5
:10444000D3F8E0200A43C3F8E020D3F808210A4358
:104450003049C3F808210A46D3F80831FFF7CEFFE8
:1044600000F580601C31FFF7C9FF02F1380100F54B
:104470008060FFF7C3FF02F1540100F58060FFF791
:10448000BDFF02F1700100F58060FFF7B7FF02F198
:104490008C0100F58060FFF7B1FF02F1A80100F583
:1044A0008060FFF7ABFF02F1C40100F58060FFF709
:1044B000A5FF02F1E00100F58060FFF79FFF02F128
:1044C000FC0100F58060FFF799FF02F58C7100F5A3
:1044D0008060FFF793FF00F01BF90F4BD3F8902299
:1044E00042F00102C3F89022D3F8942242F0010274
:1044F000C3F894220522C3F898204FF06052C3F805
:104500009C20064AC3F8A02008BD00BF0044025802
:1045100000000258A04E000800ED00E01F00080354
:1045200008B500F0D7FAFEF75BF8104BD3F8DC20A3
:1045300042F04002C3F8DC20D3F8042122F040020C
:10454000C3F80421D3F80431094B1A6842F0080279
:104550001A601A6842F004021A60FEF7B5FDFEF711
:1045600021FDBDE80840FEF7A5BA00BF004402588F
:104570000018024870470000114BD3F8E82042F0C1
:104580000802C3F8E820D3F8102142F00802C3F86B
:1045900010210C4AD3F81031D36B43F00803D363D6
:1045A000C722094B9A624FF0FF32DA6200229A6109
:1045B0005A63DA605A6001225A611A60704700BF7C
:1045C000004402580010005C000C0040094A08B585
:1045D0001169D3680B40D9B29B076FEA01011161E1
:1045E00007D5302383F31188FEF714F8002383F3F3
:1045F000118808BD000C0040064BD3F8DC200243B4
:10460000C3F8DC20D3F804211043C3F80401D3F825
:10461000043170470044025808B53C4B4FF0FF315D
:10462000D3F8802062F00042C3F88020D3F88020C5
:1046300002F00042C3F88020D3F88020D3F8842011
:10464000C3F88410D3F884200022C3F88420D3F860
:104650008400D86F40F0FF4040F4FF0040F4DF409A
:1046600040F07F00D867D86F20F0FF4020F4FF00B3
:1046700020F4DF4020F07F00D867D86FD3F888009F
:104680006FEA40506FEA5050C3F88800D3F88800B2
:10469000C0F30A00C3F88800D3F88800D3F890006C
:1046A000C3F89010D3F89000C3F89020D3F890008E
:1046B000D3F89400C3F89410D3F89400C3F894206E
:1046C000D3F89400D3F89800C3F89810D3F8980062
:1046D000C3F89820D3F89800D3F88C00C3F88C1056
:1046E000D3F88C00C3F88C20D3F88C00D3F89C004E
:1046F000C3F89C10D3F89C10C3F89C20D3F89C30CE
:10470000FCF7A6FEBDE8084000F0B8B90044025826
:1047100008B50122534BC3F80821534BD3F8F420BA
:1047200042F00202C3F8F420D3F81C2142F0020246
:10473000C3F81C210222D3F81C314C4BDA605A68B2
:104740009104FCD54A4A1A6001229A60494ADA600B
:1047500000221A614FF440429A61444B9A699204D4
:10476000FCD51A6842F480721A603F4B1A6F12F43B
:10477000407F04D04FF480321A6700221A671A680B
:1047800042F001021A60384B1A685007FCD500222B
:104790001A611A6912F03802FBD1012119604FF039
:1047A000804159605A67344ADA62344A1A611A6899
:1047B00042F480321A602C4B1A689103FCD51A68B7
:1047C00042F480521A601A689204FCD52C4A2D4992
:1047D0009A6200225A63196301F57C01DA6301F2DF
:1047E000E71199635A64284A1A64284ADA621A68F7
:1047F00042F0A8521A601C4B1A6802F02852B2F11B
:10480000285FF9D148229A614FF48862DA61402228
:104810001A621F4ADA641F4A1A651F4A5A651F4AFC
:104820009A6532231E4A1360136803F00F03022BAC
:10483000FAD10D4A136943F003031361136903F0BE
:104840003803182BFAD14FF00050FFF7D5FE4FF088
:104850008040FFF7D1FE4FF00040BDE80840FFF771
:10486000CBBE00BF008000510044025800480258EF
:1048700000C000F0020000010000FF010088900865
:104880001210200063020901470E0508DD0BBF016D
:1048900020000020000001100910E00000010110BC
:1048A000002000524FF0B04208B5D2F8883003F033
:1048B0000103C2F8883023B1044A13680BB1506871
:1048C0009847BDE80840FEF74DBC00BF984800205F
:1048D0004FF0B04208B5D2F8883003F00203C2F8B6
:1048E000883023B1044A93680BB1D0689847BDE87B
:1048F0000840FEF737BC00BF984800204FF0B04298
:1049000008B5D2F8883003F00403C2F8883023B128
:10491000044A13690BB150699847BDE80840FEF797
:1049200021BC00BF984800204FF0B04208B5D2F833
:10493000883003F00803C2F8883023B1044A936931
:104940000BB1D0699847BDE80840FEF70BBC00BF2B
:10495000984800204FF0B04208B5D2F8883003F0F4
:104960001003C2F8883023B1044A136A0BB1506AAD
:104970009847BDE80840FEF7F5BB00BF9848002007
:104980004FF0B04310B5D3F8884004F47872C3F800
:104990008820A30604D5124A936A0BB1D06A9847BF
:1049A000600604D50E4A136B0BB1506B9847210675
:1049B00004D50B4A936B0BB1D06B9847E20504D535
:1049C000074A136C0BB1506C9847A30504D5044AF1
:1049D000936C0BB1D06C9847BDE81040FEF7C2BB9A
:1049E000984800204FF0B04310B5D3F8884004F445
:1049F0007C42C3F88820620504D5164A136D0BB1BA
:104A0000506D9847230504D5124A936D0BB1D06DB4
:104A10009847E00404D50F4A136E0BB1506E9847C7
:104A2000A10404D50B4A936E0BB1D06E9847620473
:104A300004D5084A136F0BB1506F9847230404D56F
:104A4000044A936F0BB1D06F9847BDE81040FEF752
:104A500089BB00BF9848002008B50348FCF764FEF6
:104A6000BDE80840FEF77EBB6028002008B5FFF7D0
:104A7000ADFDBDE80840FEF775BB0000062108B596
:104A80000846FCF7CFFE06210720FCF7CBFE0621E7
:104A90000820FCF7C7FE06210920FCF7C3FE06210B
:104AA0000A20FCF7BFFE06211720FCF7BBFE0621FB
:104AB0002820FCF7B7FE09217A20FCF7B3FE072176
:104AC0003220FCF7AFFE0C212520BDE80840FCF7A2
:104AD000A9BE000008B5FFF79FFD00F00DF8FDF737
:104AE00065F8FDF73BFAFDF70FF9FFF743FDBDE869
:104AF0000840FFF7DDBA00000023054A19460133DC
:104B0000102BC2E9001102F10802F8D1704700BF72
:104B10009848002010B501390244904201D100208C
:104B200005E0037811F8014FA34201D0181B10BD16
:104B30000130F2E7034611F8012B03F8012B002A9C
:104B4000F9D1704701105A00031059000120580094
:104B50000320560053544D333248373F3F3F0053F4
:104B6000544D3332483733782F3732780053544D11
:104B70003332483734332F3735332F3735300063EE
:104B800030004172647550696C6F740025424F416A
:104B90005244252D424C002553455249414C250095
:104BA00025424F415244250052565348373433561C
:104BB00034003031323334353637383941424344AA
:104BC0004546006D61696E0069646C650000000017
:104BD00010000240080002400008024000000B00E4
:104BE00028000240080002400408024006010C00B0
:104BF00040000240080002400808024010020D0078
:104C000058000240080002400C08024016030E0043
:104C1000700002400C0002401008024000040F0027
:104C2000880002400C0002401408024006051000F3
:104C3000A00002400C0002401808024010061100BB
:104C4000B80002400C0002401C08024016072F006A
:104C50001004024008040240200802400008380006
:104C600028040240080402402408024006093900D2
:104C7000400402400804024028080240100A3A009A
:104C800058040240080402402C080240160B3B0066
:104C9000700402400C04024030080240000C3C004A
:104CA000880402400C04024034080240060D44000F
:104CB000A00402400C04024038080240100E4500D7
:104CC000B80402400C0402403C080240160F4600A3
:104CD000009600000000000000000000000000003E
:104CE0000000000000000000000000006D1B000834
:104CF000591B0008951B0008811B00088D1B00082C
:104D0000791B0008651B0008511B0008A11B000847
:104D100000000000851C0008711C0008AD1C000884
:104D2000991C0008A51C0008911C00087D1C0008A7
:104D3000691C0008B91C0008010000000000000008
:104D4000000000007F4B0008D0280020E02A00204F
:104D5000DC47002001010200552A000861290008F3
:104D6000FD290008E1290008030000000000000000
:104D7000591F00080000000010000000402B002018
:104D80000000000001000000000000000200000020
:104D900000000000A51E0008111F00084000400090
:104DA000602B0020502B00200200000000000000BB
:104DB0000403090443000000BC4D0008090243003D
:104DC000020100C0320904000001020201000524B2
:104DD000001001052401000104240202052406003C
:104DE00001070582030800FF09040100020A000010
:104DF0000007050102400000070581024000000095
:104E000012000000084E00081201100102000040CC
:104E100009124157000201020301000000000020B6
:104E2000000002000200000000000030000004004A
:104E3000080000000000002400000800040000003A
:104E40000004000000FC000002000000000004302C
:104E50000080000008000000000000380000010091
:104E60000100000000010000001000000800000028
:104E70008000000040010000080000000000000069
:104E8000B52000086D2300081924000840004000E8
:104E90003047002030470020010000002847002054
:104EA0000000A82A00000000AAAAAAAA0000142450
:104EB000FFFF00000000000070A70A0000000000D3
:104EC00000000000AAAAAAAA00000000FFFF00003C
:104ED00000000000000000000000000000000000D2
:104EE000AAAAAAAA00000000FFFF0000000000001C
:104EF000000000000000000000000000AAAAAAAA0A
:104F000000000000FFFF00000000000000000000A3
:104F10001001000000000000AAAAAAAA00000000D8
:104F2000EBFF000000000000000000000000000097
:104F300000000000AAAAAAAA00000000FFFF0000CB
:104F40000000000000000000000000000000000061
:104F5000AAAAAAAA00000000FFFF000000000000AB
:104F6000000000000000000000000000AAAAAAAA99
:104F700000000000FFFF0000000000000000000033
:104F80000000000000000000AAAAAAAA0000000079
:104F9000FFFF000000000000000000000000000013
:104FA00000000000AAAAAAAA00000000FFFF00005B
:104FB00000000000000000000000000000000000F1
:104FC000AAAAAAAA00000000FFFF0000000000003B
:104FD0000000000000000000E41B000000000000D2
:104FE00000001A0000000000FF000000D02D00208B
:104FF0006028002000000000544B000883040000DB
:105000005F4B0008500400006D4B00080096000044
:105010000000080004000000B04D0008000000007F
:105020000000000000000000000000000000000080
:0C503000000000000096000000000800D6
:00000001FF
